{
  "_format": "hh-sol-artifact-1",
  "contractName": "Counter",
  "sourceName": "contracts/Counter.sol",
  "abi": [
    {
      "inputs": [],
      "stateMutability": "nonpayable",
      "type": "constructor"
    },
    {
      "inputs": [],
      "name": "counter",
      "outputs": [
        {
          "internalType": "uint256",
          "name": "",
          "type": "uint256"
        }
      ],
      "stateMutability": "view",
      "type": "function"
    },
    {
      "inputs": [],
      "name": "incrementCounter",
      "outputs": [],
      "stateMutability": "nonpayable",
      "type": "function"
    }
  ],
  "bytecode": "0x608060405234801561001057600080fd5b5060008081905550610163806100276000396000f3fe608060405234801561001057600080fd5b50600436106100365760003560e01c80635b34b9661461003b57806361bc221a14610045575b600080fd5b610043610063565b005b61004d61007c565b60405161005a919061009b565b60405180910390f35b600080815480929190610075906100e5565b9190505550565b60005481565b6000819050919050565b61009581610082565b82525050565b60006020820190506100b0600083018461008c565b92915050565b7f4e487b7100000000000000000000000000000000000000000000000000000000600052601160045260246000fd5b60006100f082610082565b91507fffffffffffffffffffffffffffffffffffffffffffffffffffffffffffffffff8203610122576101216100b6565b5b60018201905091905056fea2646970667358221220557f2716247fdf3720e3b156ace7cd4660b6b071f7909eca6ac4b7b12033ac3664736f6c63430008130033",
  "linkReferences": {},
  "deployedLinkReferences": {}
}